:1000000002308A00B02A0000FF00030E8301A10025
:100010000A08A0008A010408A2007708A300780853
:10002000A4007908A5007A08A60003170D08031399
:10003000A70003170F080313A80003170C080313E6
:10004000A90003170E080313AA00831383128C3030
:100050008400001F2D280C1B4E2822088400230832
:10006000F7002408F8002508F9002608FA002708F8
:1000700003178D000313280803178F0003132908A3
:1000800003178C0003132A0803178E00031320089C
:100090008A00210E8300FF0E7F0E09008A110A12CA
:1000A000652844308400831300080319642806304F
:1000B000F800F701F70B5A28F80B59287B30F700A6
:1000C000F70B6028800B57280800AC122C08831609
:1000D000870083128716C830C4005120AC122C0848
:1000E00083168700831287120C138A110A122D2897
:1000F000D430E8396937A029EF3CF4326B00412253
:100100004310D3306D38EC320001412730102010FD
:10011000201020102010201020102010201020105F
:100120002010201020102010201020100001D630A8
:10013000EC3A651D2536750041273110201020103E
:10014000201020102010201020102010201020102F
:10015000201020102010201020100001D630EC3A82
:10016000651D25367500420EF039F7000F30080581
:1001700077048800000008140230F700F70BBE284F
:10018000C1280000081008000808F700080E0F3901
:10019000F8000800831608108810081183128810D0
:1001A0000F3083160805F038880083120815000008
:1001B00008140000C4207808C200081000000814C9
:1001C000E128E2280000C4207808C10008100F30A0
:1001D0008316080588008312420EF700F030F705F9
:1001E00077084104F8007808C100C11BD0283F1CE3
:1001F00088103F1888140000081100000810400EF5
:10020000C1000F30C1054108C200B32040080F39BA
:10021000C100C200B32008002830B2000C30B30087
:100220000130B4000630B5000810881008110F30F6
:100230008316080588000810881008118312AB0186
:100240008B1BAB178B130F30C4005120AB1B8B17CC
:100250000130B1003108033C031C3C290330C200CB
:10026000B320AB018B1BAB178B130530C40051209F
:10027000AB1B8B17B10A2A290230C200B320AB0195
:100280008B1BAB178B130530C4005120AB1B8B1796
:10029000B1013108033C031C592932303107840075
:1002A00083130008B600BF013608C000CA20B10A97
:1002B00049298A110A12D72A3C0B5F29622940304A
:1002C000BD006329BD0101303B02BD073D088038F8
:1002D000BE00BF013E08C000CA2008003A08073A25
:1002E00003197C290B3A03198129063A03198F292E
:1002F000023A031995299A290130BB00BC005C2100
:100300009F29BF010130C000CA20AB018B1BAB1776
:100310008B130230C4005120AB1B8B179F29013077
:10032000BB000230BC005C219F29BF011030C0001F
:10033000CA209F290130BF003A08C000CA20080027
:100340000B08B1008B13831603178C170C140000D5
:10035000000083120313B11B8B1703170C087F399E
:100360000319F4290313B10003170D080313B20096
:1003700003170F080313B3003108BA006E213208C7
:1003800003178D000313330803178F0003130B08A3
:10039000B4008B13831603178C170C140000000095
:1003A00083120313B41B8B1703170C0D0E0D7F392B
:1003B0000319F4290313B10003170D080313B20046
:1003C00003170F080313B3003108BA006E21320877
:1003D00003178D000313330803178F008D0A0319C9
:1003E0008F0A0313A0290317031308000B08B20098
:1003F0008B13831603178C170C1400000000831254
:100400000313B21B8B1703182D2A03170C087F390F
:100410000313B20003170D080313B30003170F08EB
:100420000313B4003208BA006E21330803178D009D
:100430000313340803178F0003130B08B5008B1345
:10044000831603178C170C1400000000831203138B
:10045000B51B8B17B10B2D2A4C2A03170C0D0E0D53
:100460007F390313B20003170D080313B3000317FA
:100470000F080313B4003208BA006E2133080317C3
:100480008D000313340803178F008D0A03198F0A98
:1004900003100313B10BF6290800B9010408B800D2
:1004A0003910831B3914320EF038B400B407E23E21
:1004B000B500323EB70032080F39B507B507B707A8
:1004C000E93EB600B607B607310E0F39B607B707D3
:1004D000B60DB70DB709B70D31080F39B707B40D11
:1004E0000730B3000A30B707B603031C732AB607F8
:1004F000B503031C772AB507B403031C7B2AB40792
:10050000B303031C7F2A333084008313073038057C
:100510003813840737300402031938170008F7002E
:10052000031D9A2A381B9A2A381AAC2AB8199A2A13
:1005300020309D2AB81538123030F707B201040870
:10054000B1003210831B32147708BA006E213108D3
:100550008400831332188317840A381F8A2A0800FC
:1005600003081F398300FF30AC0083161F149F144B
:100570001F159F1107309C008313003087008312E2
:10058000AC0083160914891409151F109F101F153C
:100590009F111F1383121F179F1783169F13831218
:1005A0001F1483160C17C03083128B040C290130E2
:1005B000BB00BC005C21783003178D0000308F0039
:1005C0000313A0210130BB000230BC005C217F304E
:1005D00003178D0000308F000313A0210630B100F7
:1005E000AB018B1BAB178B13FA30C4005120AB1B34
:1005F0008B17B10BF02A0030F8001F08C7397804B8
:100600009F008430F700F70B032B062B00001F150B
:100610001F19082B83161E088312AD001E08AE009A
:100620000130BB00BC005C21853003178D00003019
:100630008F000313A0210130BB000230BC005C21FD
:10064000973003178D0000308F000310063003131E
:10065000B100F621103084002E08B2002D08B10040
:100660004D220830B100AB018B1BAB178B13FA3056
:10067000C4005120AB1B8B17B10B332B0830F80093
:100680001F08C73978049F002030F700F70B462B6E
:10069000492B00001F151F194B2B83161E088312B0
:1006A000AF001E08B0000130BB00BC005C219C30D4
:1006B00003178D0000308F000313A0210130BB0011
:1006C0000230BC005C21AE3003178D0000308F007B
:1006D000031006300313B100F621103084003008F7
:1006E000B2002F08B1004D220830B100AB018B1BC6
:1006F000AB178B13FA30C4005120AB1B8B17B10B17
:06070000762BFB2A6300CA
:02400E00323F3F
:00000001FF
;PIC16F877A
;CRC=2151  CREATED="06-Aðu-21 18:24"
