:1000000000308A00182800002F3084008313000875
:10001000031917280630F800F701F70B0D28F80B25
:100020000C287B30F700F70B1328800B0A280800F8
:1000300003081F39830083161F149F141F159F1177
:1000400083133F308312A1000630A2005B30A3006F
:100050004F30A4006630A5006D30A6007D30A700AB
:100060000730A8007F30A9006F30AA000030831647
:100070008600860183128601AB01AC010130AD0020
:100080002C08053C031C50288316860183122D087A
:1000900086000310AD0D6430AF000420AC0A402888
:1000A000831686018312290886000230AE00E130F3
:1000B000AF000420AE0B57288316860183128601F9
:1000C0000230AE00E130AF000420AE0B6228831690
:1000D00086018312290886000230AE00E130AF00AD
:1000E0000420AE0B6E28831686018312860102302F
:1000F000AE00E130AF000420AE0B79282B080A3C9B
:10010000031D8428AB018A282B08FF3C031D8A2885
:100110000930AB00831605148312051C9628AB0A20
:1001200083160514831205189028A12883168514B8
:100130008312851CA128AB038316851483128518AE
:100140009C2821302B07840083130008AE008316FF
:0C015000860183122E0886007E286300C2
:02400E00323F3F
:00000001FF
;PIC16F877
;CRC=D707  CREATED="22-Nis-22 20:19"
