:1000000000308A0018280000223084008313000882
:10001000031917280630F800F701F70B0D28F80B25
:100020000C287B30F700F70B1328800B0A280800F8
:1000300003081F39830083161F149F141F159F1177
:1000400083138312A10103308316850000308600DC
:100050008601831221088600831605148312051C6D
:100060004328A10A21080A3C0319A101831686012D
:10007000831221088600C830A200042083160514CC
:10008000831205183E28831685148312851C5C286C
:10009000A1032108FF3C031D4F280930A10083164E
:1000A0008601831221088600C830A200042083162E
:0C00B00085148312851857282C28630043
:02400E00323F3F
:00000001FF
;PIC16F877
;CRC=CD2F  CREATED="25-Nis-21 15:30"
