:1000000000308A0033280000FF00030E8301A100A6
:100010000A08A0008A010408A2007708A300780853
:10002000A4007908A5007A08A600831383128B1E0A
:100030001B280B192C28220884002308F700240809
:10004000F8002508F9002608FA0020088A00210E89
:100050008300FF0E7F0E09008A110A122F280B1150
:100060008A110A121B2803081F398300FF30A700DA
:1000700083161F149F141F159F1107309C008313B4
:100080000108C03902388100003087008312A700C0
:10009000A8011030A9002030AA003030AB00403059
:1000A000AC005030AD008B16C0308B04B401B301EE
:1000B000B201B101AE010030A7008316870183129F
:1000C0008701AF012F08053C031CA2283108393CE9
:1000D000031D74283208033C031D7428B308031D54
:1000E0007428B408031981280108FF3C031D8028E7
:1000F0000130B1070318B20A0319B30A0319B40A8D
:100100006628AE0A2E080A3C031D8F280030A7007F
:100110008316870183122E088700AE01AF0AB4014F
:10012000B301B201B10128302F0784008313000806
:100130002E04B0000030A700831687018312300818
:080140008700622861286300BA
:02400E00323F3F
:00000001FF
;PIC16F877A
;CRC=063D  CREATED="02-Aðu-21 17:07"
