:1000000002308A003A2A0000FF00030E8301A1009B
:100010000A08A0008A010408A2007708A300780853
:10002000A4007908A5007A08A600831383128B1E0A
:100030001B280B192C28220884002308F700240809
:10004000F8002508F9002608FA0020088A00210E89
:100050008300FF0E7F0E09008A110A12662983169B
:10006000081088100811831288100F3083160805B5
:10007000F0388800831208150000081400000808F2
:10008000F700080E0F39F8007808CC0008100000BF
:1000900008144A284B2800000808F700080E0F39FA
:1000A000F8007808CB0008100F3083160805880088
:1000B00083124C0EF700F030F70577084B04F80078
:1000C0007808CB00CB1B3528491C881049188814A8
:1000D00000000811000008104A0ECB000F30CB05BD
:1000E0004B08CC004C0EF039F7000F3008057704B0
:1000F0008800000008140230F700F70B7D288028E4
:10010000000008104A080F39CB004B08CC004C0EF9
:10011000F039F7000F300805770488000000081454
:100120000230F700F70B922895280000081008000D
:10013000460B9B289E284030C7009F28C7010130EE
:100140004502C70747088038C800C9014808CA00E7
:100150002F2008004408073A0319B8280B3A03195E
:10016000BD28063A0319D728023A0319DD28E228E8
:100170000130C500C6009820E728C9010130CA0037
:100180002F200230C5004530840083130008031976
:10019000D6280630F800F701F70BCC28F80BCB284F
:1001A0007B30F700F70BD228800BC928E7280130F5
:1001B000C5000230C6009820E728C9011030CA00E7
:1001C0002F20E7280130C9004408CA002F2008006A
:1001D00020303F1E3030C0003E08F700F71FF828DF
:1001E000F709F70A7708BE002D30C000BF173F148B
:1001F00078083E08C4006430C5004508F801440290
:10020000031805294408F7001129F7010830C60032
:10021000C40DF70D450877020318F700F80DC60B5B
:1002200008297708BE0030307807C1003E08C400B6
:100230000A30C5004508F801440203182229440881
:10024000F7002E29F7010830C600C40DF70D450848
:1002500077020318F700F80DC60B25293030770711
:10026000C30030307807C2004008F7003030410248
:1002700003193E29BF14BF1B3F1552293F195229AC
:100280004008C100BF1849293030420203194C29E7
:100290003F14BF1BBF145229031D3F14031D5229D5
:1002A0004108C2003F195929BF185C293F185F292E
:1002B00062294008C400AA204108C400AA204208BC
:1002C000C400AA204308C400AA2008000630810008
:1002D000AC0A0319AD0A2C08983C031D9E292D0871
:1002E000083C031D9E29A80A28083C3C031D8329BD
:1002F000A801A90A29083C3C031D8329AA0A2A0847
:10030000183C0319AA010130C500C60098202A082C
:10031000BE000130BF00E8203A30C400AA202908FE
:10032000BE000130BF00E8203A30C400AA202808EF
:10033000BE000130BF00E820AD01AC010B118A11F5
:100340000A121B282830AF000C30B0000130B10079
:100350000630B2000810881008110F308316080507
:1003600088000810881008110F308312C50045302E
:100370008400831300080319CA290630F800F70126
:10038000F70BC029F80BBF297B30F700F70BC62904
:10039000800BBD290130AE002E08033C031CF92957
:1003A0000330CC004C0EF039F7000F30080577040D
:1003B0008800000008140230F700F70BDD29E0295F
:1003C000000008100530C500453084008313000884
:1003D0000319F7290630F800F701F70BED29F80BA0
:1003E000EC297B30F700F70BF329800BEA29AE0AE2
:1003F000CC290230CC004C0EF039F7000F30080544
:1004000077048800000008140230F700F70B062A72
:10041000092A000008100530C50045308400831308
:1004200000080319202A0630F800F701F70B162AF6
:10043000F80B152A7B30F700F70B1C2A800B132AC8
:10044000AE012E08033C031C372A2F302E078400F0
:1004500083130008B300A7018B1BA7178B13C901D7
:100460003308CA002F20A71B8B17AE0A212A8A1136
:100470000A12472A03081F39830083161F149F148A
:100480001F159F1107309C0083138312A229A70117
:100490008B1BA7178B132A08BE000130BF00E82072
:1004A000A71B8B17A7018B1BA7178B133A30C40010
:1004B000AA20A71B8B17A7018B1BA7178B13290833
:1004C000BE000130BF00E820A71B8B17A7018B1BC4
:1004D000A7178B133A30C400AA20A71B8B17A701BC
:1004E0008B1BA7178B132808BE000130BF00E82024
:1004F000A71B8B17831606148312061C112B831659
:1005000005148312051CC82AAA0AA7018B1BA7176A
:100510008B130130C500C6009820A71B8B17A701BD
:100520008B1BA7178B132A08BE000130BF00E820E1
:10053000A71B8B17A7018B1BA7178B133A30C4007F
:10054000AA20A71B8B17A7018B1BA7178B132908A2
:10055000BE000130BF00E820A71B8B17A7018B1B33
:10056000A7178B133A30C400AA20A71B8B17A7012B
:100570008B1BA7178B132808BE000130BF00E82093
:10058000A71B8B178316051483120518C22A102B7C
:10059000831685148312851C102BA90AA7018B1BB7
:1005A000A7178B130130C500C6009820A71B8B1717
:1005B000A7018B1BA7178B132A08BE000130BF00B1
:1005C000E820A71B8B17A7018B1BA7178B133A30AB
:1005D000C400AA20A71B8B17A7018B1BA7178B137F
:1005E0002908BE000130BF00E820A71B8B17A70118
:1005F0008B1BA7178B133A30C400AA20A71B8B179D
:10060000A7018B1BA7178B132808BE000130BF0062
:10061000E820A71B8B1783168514831285180B2BD4
:100620007A2A83160108C0390238810083128B169A
:0C063000C0308B04063081001C2B6300DE
:02400E00323F3F
:00000001FF
;PIC16F877A
;CRC=B70D  CREATED="06-Aðu-21 22:15"
