:1000000000308A005A280000FF00030E8301A1007F
:100010000A08A0008A010408A2007708A300780853
:10002000A4007908A5007A08A600831383128B1E0A
:100030001B280B1936280B1E1F288B1839288C30CB
:100040008400001C25280C183C2822088400230862
:10005000F7002408F8002508F9002608FA0020080F
:100060008A00210E8300FF0E7F0E09008A110A12FA
:1000700048288A110A123F288A110A125128831629
:1000800005100130831285068B108A110A1225286B
:10009000831605100130831285060B118A110A128E
:1000A0002528831605100130831285060C108A114D
:1000B0000A12252803081F39830083161F149F1472
:1000C0001F159F1107309C0083130108C0390738A2
:1000D0008100873083129000C0308B048B160B1682
:0C00E00083160C140030850074286300A7
:02400E00323F3F
:00000001FF
;PIC16F877A
;CRC=2329  CREATED="29-Tem-21 17:24"
