:1000000000308A0074280000FF00030E8301A10065
:100010000A08A0008A010408A2007708A300780853
:10002000A4007908A5007A08A600831383128B1E0A
:100030001B280B192C28220884002308F700240809
:10004000F8002508F9002608FA0020088A00210E89
:100050008300FF0E7F0E09008A110A1244282E0821
:10006000F8012D02031837282D08F7004328F7015F
:100070000830AF00AD0DF70D2E0877020318F7001A
:10008000F80DAF0B3A28080006308100A70A0319C3
:10009000A80A2708C43C031D70282808093C031D32
:1000A0007028A90A2908AD000A30AE002F20770871
:1000B000AA002908AD000A30AE002F207808AB0056
:1000C0002B0EF700F030F70577082A04AD0000305A
:1000D000AC008316870183122D088700A801A701B1
:1000E0000B118A110A121B2803081F398300FF30E5
:1000F000AC0083161F149F141F159F1107309C001E
:1001000083130108C0390238810000308700831250
:10011000AC00AC0083168701831287018B16C030B8
:0A0120008B04063081009328630071
:02400E00323F3F
:00000001FF
;PIC16F877A
;CRC=A2F5  CREATED="02-Aðu-21 17:02"
