:1000000001308A00BD290000CE34F3396137000089
:10001000D335793669376510472A2D2920293300D1
:100020002930840083130008031923280630F800C0
:10003000F701F70B1928F80B18287B30F700F70B9E
:100040001F28800B16280800300EF039F7000F30FB
:10005000080577048800000008140230F700F70B49
:100060002F2832280000081008000808F700080EA2
:100070000F39F80008008316081088100811831241
:1000800088100F3083160805F03888008312081591
:1000900000000814000035207808B00008100000A7
:1000A000081452285328000035207808AF000810A3
:1000B0000F308316080588008312300EF700F030E9
:1000C000F70577082F04F8007808AF00AF1B412828
:1000D0002D1C88102D18881400000811000008102D
:1000E0002E0EAF000F30AF052F08B00024202E08D1
:1000F0000F39AF00B000242008002830A3000C30D6
:10010000A4000130A5000630A600081088100811D0
:100110000F308316080588000810881008110F306A
:100120008312A90010200130A2002208033C031C06
:10013000A1280330B00024200530A9001020A20A15
:1001400095280230B00024200530A9001020A2011B
:100150002208033C031CB8282330220784008313A1
:100160000008A700AD012708AE003B20A20AA8287E
:100170008A110A12CA292A0BBE28C1284030AB00B6
:10018000C228AB0101302902AB072B088038AC0034
:10019000AD012C08AE003B2008002808073A0319DF
:1001A000DB280B3A0319E028063A0319E828023A3B
:1001B0000319EE28F3280130A900AA00BB20F82873
:1001C000AD010130AE003B200230A9001020F8281C
:1001D0000130A9000230AA00BB20F828AD01103080
:1001E000AE003B20F8280130AD002808AE003B20CF
:1001F00008000B08A2008B13831603178C170C142E
:100200000000000083120313A21B8B1703170C08B6
:100210007F3903194D290313A20003170D08031397
:10022000A30003170F080313A4002208A800CD2081
:10023000230803178D000313240803178F000313EB
:100240000B08A5008B13831603178C170C140000E2
:10025000000083120313A51B8B1703170C0D0E0D43
:100260007F3903194D290313A20003170D08031347
:10027000A30003170F080313A4002208A800CD2031
:10028000230803178D000313240803178F008D0A1A
:1002900003198F0A0313F928031703130800290809
:1002A000F8012802031857292808F7006329F701E5
:1002B0000830AA00A80DF70D290877020318F700E7
:1002C000F80DAA0B5A2908002030231E3030A40054
:1002D0002208F700A21F7429F709F70A7708A2007D
:1002E0002D30A400A31723142208A8006430A9000D
:1002F0004F217708A20030307807A5002208A80017
:100300000A30A9004F2130307707A7003030780736
:10031000A6002408F7003030250203199329A314FE
:10032000A31B2315A7292408A5002030A4003030E2
:10033000260203199F292314A31BA314A729031D15
:100340002314031DA7292508A6002030A500231982
:10035000AE29A318B1292318B429B7292408A80065
:10036000CD202508A800CD202608A800CD202708EC
:10037000A800CD208A110A12F32903081F3983002F
:1003800083161F149F141F159F1107309C008313A1
:1003900083127D280230A1000130A900AA00BB20F1
:1003A000043003178D0000308F000313F920013053
:1003B000A9000230AA00BB20083003178D000030CE
:1003C0008F000313F9201030A9000230AA00BB20CF
:1003D0002108053C031DEE290230A1002108A200DE
:1003E0001830A3006429A10A0430A200FA30A90041
:0A03F0001020A20BF629E329630098
:02400E00323F3F
:00000001FF
;PIC16F877A
;CRC=FC43  CREATED="02-Aðu-21 17:57"
