:1000000000308A004C2800000B1D10280130A0078A
:100010000318A10A0319A20A0319A30A0B111C2829
:1000200001080B1D1D280130A0070318A10A0319A0
:10003000A20A0319A30A0B110108F7002008F8000F
:100040002108F9002208FA002308AC00AC0CFA0CD5
:10005000F90CF80CF70C080030082C02F7002D08FA
:10006000F8003108031C310FF8022E08F90032089D
:10007000031C320FF9022F08FA003308031C330F58
:10008000FA028A110A128F28831686100230831210
:1000900086068A110A12A92803081F398300A301C2
:1000A000A201A101A00183160108C039073881000F
:1000B000831281010B1183161F149F141F159F11AA
:1000C00007309C008313831204207A08AB00790860
:1000D000AA007808A9007708A8002B08A7002A081A
:1000E000A6002908A5002808A40004207A08A70073
:1000F0007908A6007808A5007708A4002708AF00B3
:100100002608AE002508AD002408AC002B08B3007B
:100110002A08B2002908B1002808B0002C287A0863
:10012000AF007908AE007808AD007708AC00AF08E2
:10013000031DA828AE08031DA8282D08263C031877
:10014000B128FF3A031DA8282C080F3C0318B1283A
:1001500044282708AB002608AA002508A90024087F
:06016000A80075286300F1
:02400E00323F3F
:00000001FF
;PIC16F877A
;CRC=A24B  CREATED="27-Tem-21 18:29"
