:1000000000308A0040280000FF00030E8301A10099
:100010000A08A0008A010408A2007708A300780853
:10002000A4007908A5007A08A600831383128B1E0A
:100030001B280B1932288C308400001C21280C1836
:100040003528220884002308F7002408F800250832
:10005000F9002608FA0020088A00210E8300FF0E0E
:100060007F0E09008A110A1238288A110A123C28C8
:100070000B118A110A1221280C108A110A12212848
:1000800003081F398300FF30A70083161F149F1435
:100090001F159F1107309C0083130108C7390838CA
:1000A0008100B530831290008B1683160C14C0307B
:1000B00083128B04831606158312061D75280F08FC
:1000C000FA000E08F7000F087A02031D5F28770870
:1000D000A8000030A7008316870183122808870034
:1000E0008316061583120619702883168615831247
:1000F000861D83288E018F017D308E008316861524
:0A010000831286197E285A28630036
:02400E00323F3F
:00000001FF
;PIC16F877A
;CRC=E53F  CREATED="29-Tem-21 18:55"
